{
  "_format": "hh-sol-artifact-1",
  "contractName": "crud",
  "sourceName": "contracts/crud.sol",
  "abi": [
    {
      "inputs": [],
      "stateMutability": "nonpayable",
      "type": "constructor"
    },
    {
      "inputs": [
        {
          "internalType": "string",
          "name": "name",
          "type": "string"
        },
        {
          "internalType": "uint256",
          "name": "age",
          "type": "uint256"
        }
      ],
      "name": "createUser",
      "outputs": [
        {
          "internalType": "string",
          "name": "",
          "type": "string"
        }
      ],
      "stateMutability": "nonpayable",
      "type": "function"
    },
    {
      "inputs": [
        {
          "internalType": "uint256",
          "name": "id",
          "type": "uint256"
        }
      ],
      "name": "deleteUser",
      "outputs": [
        {
          "internalType": "bool",
          "name": "",
          "type": "bool"
        }
      ],
      "stateMutability": "nonpayable",
      "type": "function"
    },
    {
      "inputs": [
        {
          "internalType": "uint256",
          "name": "id",
          "type": "uint256"
        }
      ],
      "name": "getUser",
      "outputs": [
        {
          "components": [
            {
              "internalType": "uint256",
              "name": "uid",
              "type": "uint256"
            },
            {
              "internalType": "string",
              "name": "name",
              "type": "string"
            },
            {
              "internalType": "uint256",
              "name": "age",
              "type": "uint256"
            }
          ],
          "internalType": "struct crud.user",
          "name": "",
          "type": "tuple"
        }
      ],
      "stateMutability": "view",
      "type": "function"
    },
    {
      "inputs": [],
      "name": "getUsers",
      "outputs": [
        {
          "components": [
            {
              "internalType": "uint256",
              "name": "uid",
              "type": "uint256"
            },
            {
              "internalType": "string",
              "name": "name",
              "type": "string"
            },
            {
              "internalType": "uint256",
              "name": "age",
              "type": "uint256"
            }
          ],
          "internalType": "struct crud.user[]",
          "name": "",
          "type": "tuple[]"
        }
      ],
      "stateMutability": "view",
      "type": "function"
    },
    {
      "inputs": [
        {
          "internalType": "string",
          "name": "name",
          "type": "string"
        },
        {
          "internalType": "uint256",
          "name": "age",
          "type": "uint256"
        },
        {
          "internalType": "uint256",
          "name": "id",
          "type": "uint256"
        }
      ],
      "name": "updateUser",
      "outputs": [
        {
          "internalType": "bool",
          "name": "",
          "type": "bool"
        }
      ],
      "stateMutability": "nonpayable",
      "type": "function"
    },
    {
      "inputs": [
        {
          "internalType": "uint256",
          "name": "",
          "type": "uint256"
        }
      ],
      "name": "users",
      "outputs": [
        {
          "internalType": "uint256",
          "name": "uid",
          "type": "uint256"
        },
        {
          "internalType": "string",
          "name": "name",
          "type": "string"
        },
        {
          "internalType": "uint256",
          "name": "age",
          "type": "uint256"
        }
      ],
      "stateMutability": "view",
      "type": "function"
    }
  ],
  "bytecode": "0x608060405260008055348015601357600080fd5b5060016000819055506110f98061002b6000396000f3fe608060405234801561001057600080fd5b50600436106100615760003560e01c8062ce8e3e14610066578063121ef24314610084578063293bf5b4146100b4578063365b98b2146100e457806338f1484514610116578063b0467deb14610146575b600080fd5b61006e610176565b60405161007b91906108e3565b60405180910390f35b61009e60048036038101906100999190610a7a565b61027b565b6040516100ab9190610b20565b60405180910390f35b6100ce60048036038101906100c99190610b42565b610311565b6040516100db9190610bcc565b60405180910390f35b6100fe60048036038101906100f99190610be7565b6103d3565b60405161010d93929190610c23565b60405180910390f35b610130600480360381019061012b9190610be7565b610495565b60405161013d9190610bcc565b60405180910390f35b610160600480360381019061015b9190610be7565b61053d565b60405161016d9190610cb1565b60405180910390f35b60606001805480602002602001604051908101604052809291908181526020016000905b828210156102725783829060005260206000209060030201604051806060016040529081600082015481526020016001820180546101d790610d02565b80601f016020809104026020016040519081016040528092919081815260200182805461020390610d02565b80156102505780601f1061022557610100808354040283529160200191610250565b820191906000526020600020905b81548152906001019060200180831161023357829003601f168201915b505050505081526020016002820154815250508152602001906001019061019a565b50505050905090565b60606001604051806060016040528060005481526020018581526020018481525090806001815401808255809150506001900390600052602060002090600302016000909190919091506000820151816000015560208201518160010190816102e49190610edf565b5060408201518160020155505060008081548092919061030390610fe0565b919050555082905092915050565b600080600090505b6001805490508110156103c657826001828154811061033b5761033a611028565b5b906000526020600020906003020160000154036103b957846001828154811061036757610366611028565b5b906000526020600020906003020160010190816103849190610edf565b50836001828154811061039a57610399611028565b5b90600052602060002090600302016002018190555060019150506103cc565b8080600101915050610319565b50600090505b9392505050565b600181815481106103e357600080fd5b906000526020600020906003020160009150905080600001549080600101805461040c90610d02565b80601f016020809104026020016040519081016040528092919081815260200182805461043890610d02565b80156104855780601f1061045a57610100808354040283529160200191610485565b820191906000526020600020905b81548152906001019060200180831161046857829003601f168201915b5050505050908060020154905083565b600080600090505b6001805490508110156105325782600182815481106104bf576104be611028565b5b9060005260206000209060030201600001540361052557600181815481106104ea576104e9611028565b5b906000526020600020906003020160008082016000905560018201600061051191906106aa565b600282016000905550506001915050610538565b808060010191505061049d565b50600090505b919050565b6105456106ea565b60005b60018054905081101561066957826001828154811061056a57610569611028565b5b9060005260206000209060030201600001540361065c576001818154811061059557610594611028565b5b9060005260206000209060030201604051806060016040529081600082015481526020016001820180546105c890610d02565b80601f01602080910402602001604051908101604052809291908181526020018280546105f490610d02565b80156106415780601f1061061657610100808354040283529160200191610641565b820191906000526020600020905b81548152906001019060200180831161062457829003601f168201915b505050505081526020016002820154815250509150506106a5565b8080600101915050610548565b506040517f08c379a000000000000000000000000000000000000000000000000000000000815260040161069c906110a3565b60405180910390fd5b919050565b5080546106b690610d02565b6000825580601f106106c857506106e7565b601f0160209004906000526020600020908101906106e6919061070b565b5b50565b60405180606001604052806000815260200160608152602001600081525090565b5b8082111561072457600081600090555060010161070c565b5090565b600081519050919050565b600082825260208201905092915050565b6000819050602082019050919050565b6000819050919050565b61076781610754565b82525050565b600081519050919050565b600082825260208201905092915050565b60005b838110156107a757808201518184015260208101905061078c565b60008484015250505050565b6000601f19601f8301169050919050565b60006107cf8261076d565b6107d98185610778565b93506107e9818560208601610789565b6107f2816107b3565b840191505092915050565b6000606083016000830151610815600086018261075e565b506020830151848203602086015261082d82826107c4565b9150506040830151610842604086018261075e565b508091505092915050565b600061085983836107fd565b905092915050565b6000602082019050919050565b600061087982610728565b6108838185610733565b93508360208202850161089585610744565b8060005b858110156108d157848403895281516108b2858261084d565b94506108bd83610861565b925060208a01995050600181019050610899565b50829750879550505050505092915050565b600060208201905081810360008301526108fd818461086e565b905092915050565b6000604051905090565b600080fd5b600080fd5b600080fd5b600080fd5b7f4e487b7100000000000000000000000000000000000000000000000000000000600052604160045260246000fd5b61095b826107b3565b810181811067ffffffffffffffff8211171561097a57610979610923565b5b80604052505050565b600061098d610905565b90506109998282610952565b919050565b600067ffffffffffffffff8211156109b9576109b8610923565b5b6109c2826107b3565b9050602081019050919050565b82818337600083830152505050565b60006109f16109ec8461099e565b610983565b905082815260208101848484011115610a0d57610a0c61091e565b5b610a188482856109cf565b509392505050565b600082601f830112610a3557610a34610919565b5b8135610a458482602086016109de565b91505092915050565b610a5781610754565b8114610a6257600080fd5b50565b600081359050610a7481610a4e565b92915050565b60008060408385031215610a9157610a9061090f565b5b600083013567ffffffffffffffff811115610aaf57610aae610914565b5b610abb85828601610a20565b9250506020610acc85828601610a65565b9150509250929050565b600082825260208201905092915050565b6000610af28261076d565b610afc8185610ad6565b9350610b0c818560208601610789565b610b15816107b3565b840191505092915050565b60006020820190508181036000830152610b3a8184610ae7565b905092915050565b600080600060608486031215610b5b57610b5a61090f565b5b600084013567ffffffffffffffff811115610b7957610b78610914565b5b610b8586828701610a20565b9350506020610b9686828701610a65565b9250506040610ba786828701610a65565b9150509250925092565b60008115159050919050565b610bc681610bb1565b82525050565b6000602082019050610be16000830184610bbd565b92915050565b600060208284031215610bfd57610bfc61090f565b5b6000610c0b84828501610a65565b91505092915050565b610c1d81610754565b82525050565b6000606082019050610c386000830186610c14565b8181036020830152610c4a8185610ae7565b9050610c596040830184610c14565b949350505050565b6000606083016000830151610c79600086018261075e565b5060208301518482036020860152610c9182826107c4565b9150506040830151610ca6604086018261075e565b508091505092915050565b60006020820190508181036000830152610ccb8184610c61565b905092915050565b7f4e487b7100000000000000000000000000000000000000000000000000000000600052602260045260246000fd5b60006002820490506001821680610d1a57607f821691505b602082108103610d2d57610d2c610cd3565b5b50919050565b60008190508160005260206000209050919050565b60006020601f8301049050919050565b600082821b905092915050565b600060088302610d957fffffffffffffffffffffffffffffffffffffffffffffffffffffffffffffffff82610d58565b610d9f8683610d58565b95508019841693508086168417925050509392505050565b6000819050919050565b6000610ddc610dd7610dd284610754565b610db7565b610754565b9050919050565b6000819050919050565b610df683610dc1565b610e0a610e0282610de3565b848454610d65565b825550505050565b600090565b610e1f610e12565b610e2a818484610ded565b505050565b5b81811015610e4e57610e43600082610e17565b600181019050610e30565b5050565b601f821115610e9357610e6481610d33565b610e6d84610d48565b81016020851015610e7c578190505b610e90610e8885610d48565b830182610e2f565b50505b505050565b600082821c905092915050565b6000610eb660001984600802610e98565b1980831691505092915050565b6000610ecf8383610ea5565b9150826002028217905092915050565b610ee88261076d565b67ffffffffffffffff811115610f0157610f00610923565b5b610f0b8254610d02565b610f16828285610e52565b600060209050601f831160018114610f495760008415610f37578287015190505b610f418582610ec3565b865550610fa9565b601f198416610f5786610d33565b60005b82811015610f7f57848901518255600182019150602085019450602081019050610f5a565b86831015610f9c5784890151610f98601f891682610ea5565b8355505b6001600288020188555050505b505050505050565b7f4e487b7100000000000000000000000000000000000000000000000000000000600052601160045260246000fd5b6000610feb82610754565b91507fffffffffffffffffffffffffffffffffffffffffffffffffffffffffffffffff820361101d5761101c610fb1565b5b600182019050919050565b7f4e487b7100000000000000000000000000000000000000000000000000000000600052603260045260246000fd5b7f4e6f206d656d62657220666f756e640000000000000000000000000000000000600082015250565b600061108d600f83610ad6565b915061109882611057565b602082019050919050565b600060208201905081810360008301526110bc81611080565b905091905056fea26469706673582212207257ecdb956d2ac381e69d3ce68d915de9aae186051d15cf47cbf490490e3d2e64736f6c634300081b0033",
  "linkReferences": {},
  "deployedLinkReferences": {}
}